S00B00004144432E7372656351
S11300000C9454010C9413020C9471010C9471011E
S11300100C9473010C94D9020C9471010C94710129
S11300200C9471010C9471010C944B030C947101A8
S11300300C9471010C9471010C94B6010C9471012F
S11300400C9471010C9471010C94D8040C947101FA
S11300500C9471010C94C2030C9471010C94710101
S11300600C9471010C94710105000000000005005E
S1130070005F000005000700070005147F147F14CB
S113008005242A7F2A12052313086462053649567B
S1130090205005080703000005001C22410005004C
S11300A041221C000514083E08140508083E0808EF
S11300B00500B07000000508080808080500606025
S11300C00000052010080402053E5149453E050084
S11300D0427F4000057249494946052141494D3353
S11300E0051814127F10052745454539053C4A4932
S11300F04931054121110907053649494936054663
S11301004949291E05000014000005004034000080
S11301100508142241000514141414140541221472
S11301200800050201590906053E415D594E057C4A
S11301301211127C057F49494936053E414141224D
S1130140057F4141413E057F49494949057F0909E8
S11301500909053E41415173057F0808087F0500E0
S1130160417F4100052040413F01057F08142241A1
S1130170057F40404040057F020C027F057F040854
S1130180107F053E4141413E057F09090906053EB0
S11301904151215E057F09192946052649494932FD
S11301A00501017F0101053F4040403F051F2040FC
S11301B0201F053F4038403F0563140814630503BE
S11301C00478040305615149454305007F4141001A
S11301D0050204081020050041417F0005040201C6
S11301E0020405404040404005070B000000052084
S11301F054547840057F28444438053844444428FE
S113020005384444287F0538545454180500087EA2
S113021009020518A4A49C78057F08040478050045
S1130220447D4000052040403D00057F10284400E7
S11302300500417F4000057C04780478057C0804AF
S1130240047805384444443805FC18242418051857
S1130250242418FC057C0804040805485454542438
S11302600504043F4424053C4040207C051C2040F8
S1130270201C053C4030403C054428102844054CD3
S11302809090907C054464544C4405000836410029
S1130290050000770000050041360800050402044B
S11302A0080405007F417F0011241FBECFEFD8E072
S11302B0DEBFCDBF11E0A0E0B1E0E2E7F9E202C0A9
S11302C005900D92A837B107D9F725E0A8E7B1E06A
S11302D001C01D92A13CB207E1F70E94C2080C9430
S11302E0B7140C9400001F920F920FB60F921124B2
S11302F02F933F934F935F936F937F938F939F932A
S1130300AF93BF93EF93FF9336990DC01092900172
S113031010929101109292011092930160E083E097
S113032090E00E947214339910C060917E01709124
S11303307F016F5F7F4F6370772770937F016093B6
S11303407E0184E090E00E947214FF91EF91BF91CE
S1130350AF919F918F917F916F915F914F913F9159
S11303602F910F900FBE0F901F9018951F920F9210
S11303700FB60F921124CF92DF92EF92FF922F9338
S11303803F934F935F936F937F938F939F93AF9319
S1130390BF93EF93FF93C090A001D090A101E09090
S11303A0A201F090A3018FEFC81AD80AE80AF80A4C
S11303B0C092A001D092A101E092A201F092A30107
S11303C0C701B60125E030E040E050E00E9467112B
S11303D0672B682B692B19F481E08093AF01C70167
S11303E0B60124EF31E040E050E00E946711672B32
S11303F0682B692B19F481E08093AE01FF91EF9192
S1130400BF91AF919F918F917F916F915F914F9128
S11304103F912F91FF90EF90DF90CF900F900FBE00
S11304200F901F9018951F920F920FB60F921124E0
S11304308F929F92AF92BF92CF92DF92EF92FF92F0
S11304402F933F934F935F936F937F938F939F93D8
S1130450AF93BF93EF93FF9380917D018530B9F5FE
S11304608090A0019090A101A090A201B090A3015E
S11304708091790190917A016401C81AD90AE12C1A
S1130480F12C60EE73E984E090E0A70196010E94EC
S113049089113093AD012093AC012091000130917A
S11304A00101A5E3B2E00E94A811A70196010E94F0
S11304B06711309303012093020180927901909295
S11304C07A01A0927B01B0927C0110927D0180910F
S11304D07D018F5F80937D01609100017091010126
S11304E080E090E00E946C1026E53EE049E450E490
S11304F00E94FA1020E030E543EC57E40E94CB0F51
S11305004B015C0120919401309195014091960139
S1130510509197010E945F0F6B017C0160939401DD
S1130520709395018093960190939701A50194018E
S11305306091900170919101809192019091930149
S11305400E945F0F609390017093910180939201D8
S113055090939301C701B6010E943D1080E090E0A2
S11305600E947214609190017091910180919201A6
S1130570909193010E943D1083E090E00E947214D8
S1130580FF91EF91BF91AF919F918F917F916F9167
S11305905F914F913F912F91FF90EF90DF90CF901B
S11305A0BF90AF909F908F900F900FBE0F901F90B1
S11305B018951F920F920FB60F9211242F933F9309
S11305C04F935F936F937F938F939F93AF93BF9357
S11305D0EF93FF934C9912C0809100019091010117
S11305E0883C910528F401969093010180930001C1
S11305F06091000181E090E00E9472144D9912C054
S113060080910001909101018230910528F00197B9
S113061090930101809300016091000181E090E0DA
S11306200E94721489B1807359F480918001909171
S113063081010196817099279093810180938001B3
S11306404E9905C01092AB011092AA0106C081E038
S113065090E09093AB018093AA014F9907C081E089
S113066090E09093A9018093A80104C01092A9017D
S11306701092A801FF91EF91BF91AF919F918F913B
S11306807F916F915F914F913F912F910F900FBE8A
S11306900F901F9018951F920F920FB60F9211246E
S11306A02F933F934F935F936F937F938F939F9376
S11306B0AF93BF93EF93FF938091810086FF0FC0A8
S11306C08091860090918700A0E0B0E08093B4010F
S11306D09093B501A093B601B093B70122C0809165
S11306E0860090918700A0E0B0E04091B401509161
S11306F0B5016091B6017091B701841B950BA60BEF
S1130700B70B880F991FAA1FBB1F880F991FAA1F19
S1130710BB1F8093B0019093B101A093B201B09339
S1130720B3016091B0017091B1018091B2019091D7
S1130730B3010E946C1021EE3AE748E651E40E94AE
S1130740CB0F0E943D1060939801709399018093A0
S11307509A0190939B01E1E8F0E0908180E489277D
S11307608083FF91EF91BF91AF919F918F917F9182
S11307706F915F914F913F912F910F900FBE0F900A
S11307801F9018951F920F920FB60F9211248F92FB
S11307909F92AF92BF92CF92DF92EF92FF920F930C
S11307A01F932F933F934F935F936F937F938F93F5
S11307B09F93AF93BF93EF93FF938091A001909188
S11307C0A101A091A201B091A30140919C0150917B
S11307D09D0160919E0170919F018C019D01041BFC
S11307E0150B260B370B033311052105310540F09A
S11307F080939C0190939D01A0939E01B0939F01CF
S1130800809104018130A1F580E480937C00809183
S1130810980190919901A0919A01B0919B018D3218
S113082011E09107A105B10578F0809178009091CD
S11308307900909387018093860196958795969584
S113084087958093B40010C08C329140A105B10506
S113085058F4809178009091790090938701809367
S113086086018AE18093B40082E08093040172C01F
S11308708230A9F481E480937C0020917800309147
S1130880790049E1429FC001439F900D1124909348
S113089084011092850183E0809304015BC083305E
S11308A009F058C082E480937C00609178007091D4
S11308B0790080E090E00E946C1023EE35EA4BE969
S11308C05BE30E94FA1025E033EA42E95CE30E940C
S11308D05F0F6B017C0160938C0170938D01809399
S11308E08E0190938F0120E030E04AE754E40E94A7
S11308F0FA104B015C01A701960160E070E080EA08
S113090090E40E945E0F9B01AC01C501B4010E94FA
S1130910CB0F609388017093890180938A0190932F
S11309208B0121E73DE34AE250E40E94FA1023E3FD
S113093033ED46E853E40E945E0F0E943D1060933D
S1130940A4017093A5018093A6019093A70181E06F
S113095080930401FF91EF91BF91AF919F918F918B
S11309607F916F915F914F913F912F911F910F91C3
S1130970FF90EF90DF90CF90BF90AF909F908F90BB
S11309800F900FBE0F901F9018959093C500809301
S1130990C40088E98093C10086E08093C200089572
S11309A0E0ECF0E0908195FFFDCF8093C6000895C0
S11309B01F920F920FB60F9211242F933F934F93D0
S11309C05F936F937F938F939F93AF93BF93EF93B3
S11309D0FF938091C600843691F46091A40182E073
S11309E090E00E94721482E090E00E946A1490E009
S11309F00E94D00485E091E00E94D00408C08C36A7
S1130A0031F46091820182E090E00E947214FF91BF
S1130A10EF91BF91AF919F918F917F916F915F9172
S1130A204F913F912F910F900FBE0F901F901895EB
S1130A30CF93AC01FB018081882309F490C080919D
S1130A407801813041F1823009F452C0811181C0B2
S1130A5085B1817085B985B1806C85B9C5B19A01BC
S1130A60ADECBCEC0E94A811969587959695879558
S1130A70969587959C01220F331F880F991F880F25
S1130A80991F880F991F820F931F481B590B4E7192
S1130A90C42BC5B95EC085B1817085B985B1806A42
S1130AA085B9C5B19A01ADECBCEC0E94A811AC01AA
S1130AB05695479556954795569547959A010E94A0
S1130AC0A8119695879596958795969587959C01F7
S1130AD0220F331F880F991F880F991F880F991FA2
S1130AE0820F931F481B590B4E714C2B45B931C0D3
S1130AF085B1817085B985B1806685B9C5B19A0122
S1130B003695279536952795ABE7B4E10E94A81151
S1130B10AC01569547959A01ADECBCEC0E94A81126
S1130B209695879596958795969587959C01220F1E
S1130B30331F880F991F880F991F880F991F820FE1
S1130B40931F481B590B4E714C2B45B98FEF809363
S1130B507801809178018F5F809378011082CF9122
S1130B600895AF92BF92CF92DF92EF92FF920F93CC
S1130B701F93CF93DF93CDB7DEB7A7970FB6F89443
S1130B80DEBF0FBECDBFF8018081882309F4E9C21E
S1130B90580169017A01809101018F9380910001CC
S1130BA08F9307E011E01F930F93CE0184969F93D8
S1130BB08F930E94B71180919B018F9380919A012A
S1130BC08F93809199018F93809198018F931F93B4
S1130BD00F93CE0144969F938F930E94B7118091F7
S1130BE0AD018F938091AC018F931F930F93CE012E
S1130BF009969F938F930E94B711809187018F93D9
S1130C00809186018F931F930F93CE0180969F93BB
S1130C108F930E94B711809185018F9380918401F5
S1130C208F931F930F93CE014C969F938F930E94A3
S1130C30B7110FB6F894DEBF0FBECDBF8091A701E8
S1130C408F938091A6018F938091A5018F938091BA
S1130C50A4018F931F930F93CE0148969F938F9374
S1130C600E94B711C701B6010E943D107F936F9394
S1130C701F930F93CE0101969F938F930E94B711F8
S1130C8060919001709191018091920190919301F2
S1130C900E943D107F936F931F930F93CE010F9685
S1130CA09F938F930E94B7110E947D0D80918001C4
S1130CB0909181010FB6F894DEBF0FBECDBF0097AF
S1130CC009F0A2C060E080E00E94D6098AE091E0C9
S1130CD00E94060F0FEF28E042E368E080E00E94E4
S1130CE0530B64E180E00E94D609CE0109960E946C
S1130CF0060F64E18EE10E94D60983E191E00E942F
S1130D00060F63E280E00E94D60987E191E00E9429
S1130D10060F63E283E20E94D609CE0144960E9444
S1130D20060F62E380E00E94D6098EE191E00E9402
S1130D30060F62E388E20E94D609CE0184960E94DF
S1130D40060F68E285E50E94D609CE0101960E944D
S1130D50060F68E289E60E94D60986E291E00E94C5
S1130D60060F2EE14AE760E080E50E94070C65E08B
S1130D7085E50E94D609CE014C960E94060F65E0D7
S1130D8084E60E94D60989E291E00E94060F64E19C
S1130D9085E50E94D609CE0148960E94060F64E1BB
S1130DA089E60E94D6098BE291E00E94060F8091A9
S1130DB0A8019091A901892BD1F48091AA01909165
S1130DC0AB01009749F462E388E70E94D6098DE2FB
S1130DD091E00E94060F13C0019789F462E388E74B
S1130DE00E94D60981E191E00E94060F08C062E3E7
S1130DF088E70E94D6098FE291E00E94060F0E94C4
S1130E00A209F5011082ADC1019709F0AAC160E001
S1130E1080E00E94D6098AE091E00E94060F0FEF5D
S1130E2028E042E368E080E00E94530B60E085E53F
S1130E300E94D609CE014C960E94060F60E084E61B
S1130E400E94D60989E291E00E94060F6AE085E5D6
S1130E500E94D609CE0148960E94060F6AE089E6F0
S1130E600E94D6098BE291E00E94060F6FE080E0B9
S1130E700E94D60981E391E00E94060F6FE086E3A9
S1130E800E94D609CE010F960E94060F6FE086E4F9
S1130E900E94D6098BE391E00E94060F80917E01A7
S1130EA090917F0181309105D1F040F0823091051D
S1130EB009F465C0039709F4B8C00CC16EE184E17C
S1130EC00E94D6098EE391E00E94060F68E28AE050
S1130ED00E94D60984E491E00E94060FFBC0EE2430
S1130EE0EA9408E022E34EE16EE18AE00E94620C9B
S1130EF00FEF22E344E16EE189E10E94530B28E203
S1130F0048E263E28CE10E94530B2EE248E269E27C
S1130F108CE10E94530B24E348E26FE28CE10E94CF
S1130F20530B27E342E26EE182E20E94530B00E09E
S1130F3026E243E26EE189E10E94530B26E243E29A
S1130F4062E389E10E94530B22E34CE162E385E111
S1130F500E94530B22E340E26DE28CE10E94530BAA
S1130F6022E34EE16EE18EE10E94530B68E382E0DE
S1130F700E94D6098EE491E00E94060FABC0EE24D5
S1130F80EA9408E022E34EE16EE18AE00E94620CFA
S1130F900FEF22E344E16EE189E10E94530B28E262
S1130FA048E263E28CE10E94530B2BE248E266E2E2
S1130FB08CE10E94530B2EE248E269E28CE10E942C
S1130FC0530B21E348E26CE28CE10E94530B24E3CF
S1130FD048E26FE28CE10E94530B00E026E243E218
S1130FE06EE189E10E94530B26E243E262E389E168
S1130FF00E94530B22E34CE162E385E10E94530B10
S113100022E340E26DE28CE10E94530B22E34EE1C5
S11310106EE18EE10E94530B68E382E00E94D609E0
S113102086E591E00E94060F55C0EE24EA9408E09C
S113103022E34EE16EE18AE00E94620C0FEF22E3AC
S113104044E16EE189E10E94530B23E248E263E24A
S11310508CE10E94530B26E248E266E28CE10E9496
S1131060530B29E248E269E28CE10E94530B2CE223
S113107048E26CE28CE10E94530B2FE248E26FE2FB
S11310808CE10E94530B00E026E243E26EE189E129
S11310900E94530B26E243E262E389E10E94530B70
S11310A022E34CE162E385E10E94530B22E340E238
S11310B06DE28CE10E94530B22E34EE16EE18EE17E
S11310C00E94530B68E382E00E94D6098CE591E00C
S11310D00E94060F8091A4019091A501A091A60100
S11310E0B091A70184369105A105B105B0F1CC24D6
S11310F0CA940F2EFDE2EF2EF02D08E724E144E61A
S11311006DE280E50E94330D0FEF28E146E666E2CA
S113111082E60E94070C26E246E668E182E60E9427
S1131120810D2CE246E669E282E60E94070C2CE27D
S113113046E669E282E60E94810D60E38BE40E9448
S1131140D60981E691E00E94060F68E382E30E94DB
S1131150D60989E691E00E94060F0E94A209F501D2
S11311601082A7960FB6F894DEBF0FBECDBFDF91F5
S1131170CF911F910F91FF90EF90DF90CF90BF9090
S1131180AF90089567E670E080E090E00E94C504A7
S113119080E88093B40084B18E6F84B98FEF8AB9EC
S11311A08AB18B708AB938988CE38BB98EEF88B981
S11311B082E08093690091E09DBB26E02093680063
S11311C02CEF20936D0028E420936C0084BD23E071
S11311D025BD29EF27BD80936E0080E280936F00C8
S11311E083E28093B00084E08093B10084E4809330
S11311F0810080E480937C008FEE80937A001092CB
S11312007B0090937E0080E090E00E946A14682F37
S113121070E080E090E00E946C1060939401709301
S11312209501809396019093970181E090E00E944C
S11312306A1490E0909301018093000183E090E0B0
S11312400E946A14682F70E080E090E00E946C10A5
S11312506093900170939101809392019093930114
S113126084E090E00E946A1490E090937F01809360
S11312707E01E1ECF0E080818068808378940E94B4
S1131280DF0920E048E065E088E690E00E94960DE2
S11312900E94860D6FEA71E0809102019091030132
S11312A00E94180520919401309195014091960176
S11312B0509197016091AC017091AD010EEA11E07B
S11312C080910001909101010E94B105E3CFEF925A
S11312D0FF920F931F93CF93DF93C82F7B01142F9B
S11312E00E943B0F88E70E94500F8C2F0E94500FE2
S11312F0112371F0E7011150012F10E00F5F1F4F10
S11313000E0D1F1D89910E94500FC017D107D1F7F0
S11313100E94470FDF91CF911F910F91FF90EF90A3
S11313200895CF93DF931F92CDB7DEB7898341E051
S1131330BE016F5F7F4F80E00E9467090F90DF91CD
S1131340CF910895CF93DF9381E20E94910980E0C9
S11313500E9491098FE70E94910982E20E949109FB
S113136080E00E94910987E00E949109C0E0D0E0EA
S1131370BE0162957295707F7627607F76276F53E2
S11313807E4F40E180E40E9467092196C034D10574
S113139079F7DF91CF910895882314F08093B801F1
S11313A00895803410F48093B9010895CF93C62F23
S11313B00E94CC098C2F0E94D109CF9108950E94DC
S11313C02E0F8EEA0E94910985ED0E94910980EF0B
S11313D00E94910988EA0E9491098FE30E94910971
S11313E083ED0E94910980E00E9491098DE80E949A
S11313F0910984E10E94910980E40E94910980E2AC
S11314000E94910980E00E94910981EA0E94910959
S113141088EC0E9491098AED0E94910982E10E9460
S1131420910981E80E9491098FEF0E94910989ED49
S11314300E94910981EF0E9491098BED0E9491090C
S113144080E20E94910984EA0E94910986EA0E943E
S113145091098EE20E9491098FEA0E94910960E04D
S113146080E00E94D609E8EBF1E086EA82831782E5
S113147016821582118210820895CF93DF93C62FAE
S1131480D42F0E94D609E8EBF1E021812695269518
S11314902695808190E030E8239F800D911D1124D2
S11314A0FC01EF53FE4F2081DF3F71F4C77041E030
S11314B050E060E070E004C0440F551F661F771FC2
S11314C0CA95D2F7422B0EC0C77041E050E060E0ED
S11314D070E004C0440F551F661F771FCA95D2F7EA
S11314E040954223FC01EF53FE4F4083DF91CF919F
S11314F008959F92AF92BF92CF92DF92EF92FF92A4
S11315000F931F93CF93DF9388230CF4C0C044231D
S11315100CF4BDC0603408F0BAC0203408F0B7C081
S11315202F5FA22EA61A4F5FD42ED81A962F97702B
S1131530962E991AEA2CF12C28E030E0291B310967
S1131540E216F3066CF428E030E02E193F09CFEFE1
S1131550D0E002C0D595C7952A95E2F7BA2C04C00D
S113156028E0B22EB91ACFEFC82ED0E002C0CC0FBB
S1131570DD1F9A95E2F71C2F692D0E94D609DD2004
S113158009F441C0E8EBF1E020814181469546959C
S1131590469580E8489FA00111246D2D620FC095E7
S11315A0CA01820F911DFC01EF53FE4F30810F3FA2
S11315B011F4312B01C03C23FC01EF53FE4F308367
S11315C02F5F6213EDCF6093B8011DC0185F612FC8
S11315D08C2D0E94D609DD20D1F098812981269591
S11315E02695269580E8289F90011124892F8D0D3A
S11315F02F533E4FF901E90FF11D00839F5F8913BB
S1131600F9CF888304C0192DB918C8EBD1E08B2D0C
S1131610810F282F30E0A901485F5F4FE416F506DB
S1131620ACF68A15A0F5E21AF30ACFEFD0E002C0B7
S1131630CC0FDD1FEA94E2F7C09568E0610F8C2DB2
S11316400E94D609DD2019F1E8EBF1E02081418107
S113165046954695469580E8489FA0011124D20EF0
S11316606C2F6095CA01820F911DFC01EF53FE4F50
S113167030810F3F11F43C2B01C03623FC01EF53A2
S1131680FE4F30832F5FD212EDCFD092B801DF919D
S1131690CF911F910F91FF90EF90DF90CF90BF906B
S11316A0AF909F9008958F929F92AF92BF92CF92E6
S11316B0DF92EF92FF920F931F93CF93DF93C82F84
S11316C0D62FF42E88230CF495C044230CF492C036
S11316D0603408F08FC0203408F08CC084130AC032
S11316E0261710F4D22F262F4C2F6D2F8C2F0E94EB
S11316F0790A80C062130DC0481710F4C42FF82E65
S1131700402F6D2F8C2F0E943D0ACF5FFC16C0F72F
S113171071C0261728F4C62ED12CC21AD10804C0D1
S1131720C22ED12CC61AD108FC1678F4AC2EB12CDA
S1131730AF18B108AC14BD040CF441C08D2FD22FE6
S1131740282F8C2FCF2DF82E08C0AF2CB12CAC1A1B
S1131750B108AC14BD040CF444C09F2C9C1AD217DD
S113176038F4E22EED1A192D16958824839406C0B8
S1131770ED2EE21A192D169588248A94FC16D0F1C0
S1131780AC14BD0434F4402F6C2F8D2F0E943D0AFD
S113179005C0402F6D2F8C2F0E943D0A1E1912F494
S11317A0D80D190DCF5FFC1658F724C09D2E921A40
S11317B08D2FDF2DF82E8C2FC22F282FD2CF2D174F
S11317C0A8F38F2DF22E282F8C2FCD2FD82FC5CFF5
S11317D09D2E921A8D2FDF2DF82E8C2FC22F282F9D
S11317E0C7CF2D17A8F38F2DF22E282F8C2FCD2F96
S11317F0D82FB3CFDF91CF911F910F91FF90EF902E
S1131800DF90CF90BF90AF909F908F900895DF921C
S1131810EF92FF920F931F93CF93DF9388230CF4DF
S113182049C044230CF446C0603408F043C020345B
S113183008F040C0D02FF22ED42E162FE82E4817D1
S1131840F8F4082FC42F4D2F612F8C2F0E943D0ACE
S1131850CF5F0C17C0F7DE14B0F40E2DCD2D4D2F35
S11318606F2D8C2F0E943D0ACF5F0C17C0F7F11625
S113187068F016C00D2F4D2D8D2D0E94790A1AC0C7
S1131880042FC82FE0CF0D2DCE2DE9CF0D2F212F02
S11318904E2D6F2D8E2D0E94790A212F6F2DEACFA8
S11318A00D2F2F2D4E2D612F8E2D0E94790A2F2D55
S11318B0612FE0CFDF91CF911F910F91FF90EF90B7
S11318C0DF9008956F927F928F929F92AF92BF9212
S11318D0CF92DF92EF92FF920F931F93CF93DF93F8
S11318E088230CF4B1C044230CF4AEC0603408F077
S11318F0ABC0203408F0A8C0902E122F842ED62F0F
S1131900782E802F90E0880F991F23E030E0690142
S1131910C81AD90AF42EF01AB72CB00EFB1408F02A
S113192079C0AB2CCF2D4E2D6D2F8C2F0E943D0AEC
S1131930CF5FAC16C0F7FB1408F06FC0AB2CCF2DF3
S11319404E2D612F8C2F0E943D0ACF5FAC16C0F73D
S11319501919D90D1D1708F463C06CC00E2D482D3C
S1131960882D0E94790A092DC0E04E2D8D2E801AF3
S1131970682D9B2C9C1A892D0E943D0A4E2DAD2E5C
S1131980AC1A6A2D6B2C601A862D0E943D0A4E2DCE
S1131990682D8F2C8C0E882D0E943D0A4E2D6A2DA9
S11319A0AF2CA00E8A2D0E943D0A4E2D712E700E72
S11319B0672D892D0E943D0A4E2D912E9C0E692D76
S11319C0862D0E943D0A4E2D672D882D0E943D0ACA
S11319D04E2D692D8A2D0E943D0ADD2054F48C2F52
S11319E090E0880F991F880F991F0696C80ED91E7C
S11319F00CC08C2F90E0801B9109880F991F880FD1
S1131A00991F0A96C80ED91E0150CF5F0C1708F013
S1131A10ACCF1AC0AF2CCB2D86CFAF2CCB2D90CF13
S1131A200E2D2D2F472D612F872D0E94790A2D2FE2
S1131A30612F94CF0E2D212F472D6D2F872D0E94BE
S1131A40790A212F6D2F8ACFDF91CF911F910F91AA
S1131A50FF90EF90DF90CF90BF90AF909F908F90CA
S1131A607F906F900895CF92DF92EF92FF920F9341
S1131A701F93CF93DF938823FCF04423ECF00023DF
S1131A80DCF06034C8F42034B8F49FE39E15A0F071
S1131A90102FD22ED42FF62EC82F0C2D0E94530BAC
S1131AA02E2D412F6D2D8D2F0E94530B2F2D4C2F3A
S1131AB06E2D812F0E94530BDF91CF911F910F91B7
S1131AC0FF90EF90DF90CF90089590E007C081934E
S1131AD0E217F307E1F7985F903471F0292F269508
S1131AE02695269540E8249F90011124F901EF538F
S1131AF0FE4F2F5B3D4FEBCF089580E00E94650DB4
S1131B0008950F930E94790A0F9108958091BA0164
S1131B10873A21F486EA8093BA0103C087EA809366
S1131B20BA018091BA010E94910908956623E4F0F4
S1131B304034D0F42230C0F4E8EBF1E094838383A2
S1131B406583468350E041505109CA0199230CF43E
S1131B5007969595879595958795959587958F5F24
S1131B608093BF012093C00108952F923F924F921A
S1131B705F926F927F928F929F92AF92BF92CF9219
S1131B80DF92EF92FF920F931F93CF93DF9300D0D6
S1131B901F92CDB7DEB7E8EBF1E03080218097816A
S1131BA02581299F900111242F5F3F4F8052829FEE
S1131BB0A001839F500D11245A8349834A015FEF8A
S1131BC0851A950A0380F481E02DA981BA81EA0F70
S1131BD0FB1FC490B22DB7706B2E992309F479C002
S1131BE0D22C10E088E090E05C01AB1AB1086D2DB6
S1131BF0832D0E94D6099401210F311DD90111971B
S1131C00CC2009F448C0E090BB01F090BC01609185
S1131C10BF0170E00091C0014091B901469546951D
S1131C204695E0E84E9FA0011124E8EBF1E07080B6
S1131C302E0D3F1D5C2C570C4F535E4FF9018491C0
S1131C4090E0062C02C0880F991F0A94E2F7482EF0
S1131C50112371F0F701EA0FFB1FE491F0E00A2C65
S1131C6002C0F595E7950A94E2F74E2AA60FB71F2E
S1131C70013029F4FA01E70DF11D8081482AFA01A7
S1131C80E70DF11D40827394260F371F5710D6CFEE
S1131C90A8EBB1E05C928091C001811111C0E09188
S1131CA0B901E695E695E695A8EBB1E08C91B0E82C
S1131CB0EB9FF0011124EF53FE4FE80FF11D10824A
S1131CC0E8E0DE0E1F5F8091BF01181708F48FCF84
S1131CD002C0D22C10E0422D46954695469550E020
S1131CE02091BE01822D90E0820F911D01979C01ED
S1131CF012F4295F3F4F35952795359527953595EE
S1131D0027954217530709F465C0FFE3FD1508F44E
S1131D1061C06D2D832D0E94D60989819A81810F1E
S1131D20911DCC2009F440C0A8EBB1E011962C9190
S1131D30119726952695269540E8249F9001112415
S1131D4018966C9118970C9117964C91179750E030
S1131D501396ED91FC911497E80FF91F102F1C0DA9
S1131D6088E090E07C01E618F1085901A00EB11C4E
S1131D70C5018F539E4FDC01DC90849190E00E2CC2
S1131D8002C0959587950A94E2F78D29613009F48C
S1131D908D29D501AF53BE4F8C930F5FE40FF51F10
S1131DA00113E3CF1093B8018091C001811112C0D7
S1131DB0A8EBB1E01196EC911197E695E695E695BE
S1131DC08C91B0E8EB9FF0011124EF53FE4FE80F24
S1131DD0F11D108281E0830D622D8C0D0E94D609C5
S1131DE00F900F900F90DF91CF911F910F91FF9063
S1131DF0EF90DF90CF90BF90AF909F908F907F90A7
S1131E006F905F904F903F902F9008950F931F9382
S1131E10CF93DF93EC0188818823D9F0E8EBF1E0DC
S1131E209081258130E0290F311D203831058CF453
S1131E3021968F0109C0F8019081258130E0290F96
S1131E40311D203831052CF40E94B50D8991811182
S1131E50F2CFDF91CF911F910F9108953C9A3D9A53
S1131E60449A459A1092B90088E48093B80084E0BB
S1131E708093BC00089584EA8093BC00ECEBF0E00E
S1131E8080818823ECF78091B900887F089585EDDF
S1131E908093BC00ECEBF0E0808184FDFDCF0895DD
S1131EA08093BB0084E88093BC00ECEBF0E080817D
S1131EB08823ECF78091B900887F08955058BB2798
S1131EC0AA270E94760F0C94C0100E94B21038F01A
S1131ED00E94B91020F039F49F3F19F426F40C94B1
S1131EE0AF100EF4E095E7FB0C94A910E92F0E94C3
S1131EF0D11058F3BA17620773078407950720F0C7
S1131F0079F4A6F50C94F3100EF4E0950B2EBA2F89
S1131F10A02D0B01B90190010C01CA01A0011124EB
S1131F20FF27591B99F0593F50F4503E68F11A1697
S1131F30F040A22F232F342F4427585FF3CF469528
S1131F4037952795A795F0405395C9F77EF41F164A
S1131F50BA0B620B730B840BBAF09150A1F0FF0F14
S1131F60BB1F661F771F881FC2F70EC0BA0F621F00
S1131F70731F841F48F4879577956795B795F795F0
S1131F809E3F08F0B0CF9395880F08F09927EE0F85
S1131F909795879508950E94DF0F0C94C0100E94B6
S1131FA0B91058F00E94B21040F029F45F3F29F0B4
S1131FB00C94A91051110C94F4100C94AF100E94BD
S1131FC0D11068F39923B1F3552391F3951B550B65
S1131FD0BB27AA2762177307840738F09F5F5F4FF8
S1131FE0220F331F441FAA1FA9F335D00E2E3AF037
S1131FF0E0E832D091505040E695001CCAF72BD04F
S1132000FE2F29D0660F771F881FBB1F261737079F
S11320104807AB07B0E809F0BB0B802DBF01FF27D1
S113202093585F4F3AF09E3F510578F00C94A910F5
S11320300C94F4105F3FE4F3983ED4F386957795BF
S11320406795B795F7959F5FC9F7880F911D96958A
S1132050879597F90895E1E0660F771F881FBB1FE6
S1132060621773078407BA0720F0621B730B840B93
S1132070BA0BEE1F88F7E09508950E94D91088F0F6
S11320809F5798F0B92F9927B751B0F0E1F0660F38
S1132090771F881F991F1AF0BA95C9F714C0B13079
S11320A091F00E94F310B1E008950C94F310672F9F
S11320B0782F8827B85F39F0B93FCCF386957795A8
S11320C06795B395D9F73EF4909580957095619591
S11320D07F4F8F4F9F4F0895E89409C097FB3EF4BC
S11320E090958095709561957F4F8F4F9F4F992361
S11320F0A9F0F92F96E9BB279395F69587957795DF
S11321006795B795F111F8CFFAF4BB0F11F460FF9E
S11321101BC06F5F7F4F8F4F9F4F16C0882311F0F6
S113212096E911C0772321F09EE8872F762F05C00A
S1132130662371F096E8862F70E060E02AF09A95A5
S1132140660F771F881FDAF7880F9695879597F99A
S1132150089597F99F6780E870E060E008959FEF25
S113216080EC089500240A9416161706180609062A
S1132170089500240A9412161306140605060895F9
S1132180092E0394000C11F4882352F0BB0F40F481
S1132190BF2B11F460FF04C06F5F7F4F8F4F9F4FC1
S11321A0089557FD9058440F551F59F05F3F71F043
S11321B04795880F97FB991F61F09F3F79F08795AA
S11321C00895121613061406551FF2CF4695F1DF33
S11321D008C0161617061806991FF1CF86957105C3
S11321E0610508940895E894BB2766277727CB01F7
S11321F097F908950E940D110C94C0100E94B2101A
S113220038F00E94B91020F0952311F00C94A91015
S11322100C94AF1011240C94F4100E94D11070F39C
S1132220959FC1F3950F50E0551F629FF001729F77
S1132230BB27F00DB11D639FAA27F00DB11DAA1F86
S1132240649F6627B00DA11D661F829F2227B00DD3
S1132250A11D621F739FB00DA11D621F839FA00D5E
S1132260611D221F749F3327A00D611D231F849FAE
S1132270600D211D822F762F6A2F11249F57504005
S11322809AF0F1F088234AF0EE0FFF1FBB1F661F80
S1132290771F881F91505040A9F79E3F510580F049
S11322A00C94A9100C94F4105F3FE4F3983ED4F31B
S11322B0869577956795B795F795E7959F5FC1F7ED
S11322C0FE2B880F911D9695879597F90895A1E2A5
S11322D01A2EAA1BBB1BFD010DC0AA1FBB1FEE1F9C
S11322E0FF1FA217B307E407F50720F0A21BB30BE7
S11322F0E40BF50B661F771F881F991F1A9469F763
S113230060957095809590959B01AC01BD01CF01BE
S11323100895052E97FB1EF400940E94A01157FD0A
S113232007D00E94671107FC03D04EF40C94A0114F
S113233050954095309521953F4F4F4F5F4F0895ED
S113234090958095709561957F4F8F4F9F4F08951D
S1132350A29FB001B39FC001A39F700D811D1124E2
S1132360911DB29F700D811D1124911D0895AEE041
S1132370B0E0EDEBF1E10C948E140D891E8986E03A
S11323808C831A8309838FEF9FE79E838D83AE012D
S1132390475E5F4F6F89788DCE0101960E94D911F7
S11323A0EF81F885E00FF11F10822E96E4E00C9483
S11323B0AA14ABE0B0E0EFEDF1E10C9480146C01F1
S11323C07B018A01FC0117821682838181FFCCC1C3
S11323D0CE0101963C01F6019381F70193FD8591AD
S11323E093FF81917F01882309F4BAC1853239F4BE
S11323F093FD859193FF81917F01853229F4B60184
S113240090E00E94D013E7CF912C212C312CFFE1D6
S1132410F315D8F08B3279F038F4803279F08332C6
S1132420A1F4232D20611DC08D3261F0803369F445
S1132430232D216016C0832D8260382EE32DE460A5
S11324403E2E2AC0F32DF8601DC037FC2DC020EDB0
S1132450280F2A3040F08E32B9F436FC81C1232D86
S11324602064322E19C036FE06C08AE0989E200DE4
S11324701124922E11C0EAE02E9E200D1124222E4A
S1132480F32DF0623F2E08C08C3621F4832D806832
S1132490382E02C0883641F4F70193FD859193FFED
S11324A081917F018111B3CF982F9F7D95549330F3
S11324B028F40C5F1F4F9FE399830DC0833631F0DE
S11324C0833771F0833509F059C021C0F801808148
S11324D089830E5F1F4F88248394912C530113C06A
S11324E02801F2E04F0E511CF801A080B18036FEA5
S11324F003C0692D70E002C06FEF7FEFC5010E9439
S1132500C5134C018201F32DFF773F2E16C028011D
S113251022E0420E511CF801A080B18036FE03C0B7
S1132520692D70E002C06FEF7FEFC5010E94BA13FE
S11325304C01F32DF0683F2E820133FC1BC0822D29
S113254090E088169906B0F4B60180E290E00E940B
S1132550D0132A94F4CFF50137FC859137FE81918D
S11325605F01B60190E00E94D01321102A9421E06B
S1132570821A91088114910471F7E8C0843611F02D
S1132580893641F5F80137FE07C060817181828187
S113259093810C5F1F4F08C060817181072E000C6E
S11325A0880B990B0E5F1F4FF32DFF763F2E97FF7D
S11325B009C090958095709561957F4F8F4F9F4F7F
S11325C0F0683F2E2AE030E0A3010E940C14882E0C
S11325D0861845C0853731F4232D2F7EB22E2AE08C
S11325E030E025C0932D997FB92E8F36C1F018F4B1
S11325F0883579F0B5C0803719F0883721F0B0C03C
S1132600E92FE061BE2EB4FE0DC0FB2DF460BF2E99
S113261009C034FE0AC0292F2660B22E06C028E065
S113262030E005C020E130E002C020E132E0F801F2
S1132630B7FE07C060817181828193810C5F1F4F57
S113264006C06081718180E090E00E5F1F4FA3019E
S11326500E940C14882E8618FB2DFF773F2E36FE21
S11326600DC0232D2E7FA22E891458F434FE0BC0E6
S113267032FC09C0832D8E7EA82E05C0B82CA32C55
S113268003C0B82C01C0B92CA4FE0FC0FE01E80D94
S1132690F11D8081803321F49A2D997EA92E09C0E1
S11326A0A2FE06C0B394B39404C08A2D867809F0C0
S11326B0B394A3FC11C0A0FE06C0B21488F4280C85
S11326C0922C9B180EC0B21460F4B60180E290E024
S11326D00E94D013B394F7CFB21418F42B1802C08D
S11326E0982C212CA4FE10C0B60180E390E00E9437
S11326F0D013A2FE17C0A1FC03C088E790E002C07B
S113270088E590E0B6010CC08A2D867859F0A1FEC8
S113271002C08BE201C080E2A7FC8DE2B60190E02A
S11327200E94D013891438F4B60180E390E00E942B
S1132730D0139A94F7CF8A94F301E80DF11D8081A8
S1132740B60190E00E94D0138110F5CF222009F445
S113275042CEB60180E290E00E94D0132A94F6CFD4
S1132760F6018681978102C08FEF9FEF2B96E2E1FD
S11327700C949C14FC010590615070400110D8F732
S1132780809590958E0F9F1F0895FC0161507040B5
S113279001900110D8F7809590958E0F9F1F089592
S11327A00F931F93CF93DF93FB01238121FD03C07C
S11327B08FEF9FEF2CC022FF16C0468157812481E2
S11327C035814217530744F4A081B1819D012F5FE5
S11327D03F4F318320838C93268137812F5F3F4F76
S11327E03783268314C08B01EC01FB010084F1853F
S11327F0E02D0995892BE1F6D80116968D919C91CF
S11328001797019617969C938E931697CE01DF9196
S1132810CF911F910F910895FA01AA27283051F101
S1132820203181F1E8946F936E7F6E5F7F4F8F4FFD
S11328309F4FAF4FB1E03ED0B4E03CD0670F781F5C
S1132840891F9A1FA11D680F791F8A1F911DA11D41
S11328506A0F711D811D911DA11D20D009F468947A
S11328603F912AE0269F11243019305D3193DEF622
S1132870CF010895462F4770405D4193B3E00FD0D8
S1132880C9F7F6CF462F4F70405D4A3318F0495DC3
S113289031FD4052419302D0A9F7EACFB4E0A695A6
S11328A09795879577956795BA95C9F700976105C8
S11328B0710508959B01AC010A2E0694579547951E
S11328C037952795BA95C9F7620F731F841F951F13
S11328D0A01D0895F999FECF92BD81BDF89A99275C
S11328E080B50895262FF999FECF1FBA92BD81BDF8
S11328F020BD0FB6F894FA9AF99A0FBE019608957E
S11329002F923F924F925F926F927F928F929F92FB
S1132910AF92BF92CF92DF92EF92FF920F931F93E9
S1132920CF93DF93CDB7DEB7CA1BDB0B0FB6F8949A
S1132930DEBF0FBECDBF09942A88398848885F84DA
S11329406E847D848C849B84AA84B984C884DF804B
S1132950EE80FD800C811B81AA81B981CE0FD11D2F
S11329600FB6F894DEBF0FBECDBFED010895F89405
S1052970FFCF93
S11329723C0064000159002575004C415344204336
S113298241520052504D00536F6E61723A00442E10
S1132992706E65753A004B4D0025004300440050AB
S11329A200506572637572736F3A004B6D00466135
S11329B2726F6C004465736C696761646F004E6585
S11329C2626C696E6100426169786F00416C746F78
S11329D20042617465726961005375706572617158
S10B29E275656369646100007E
S9030000FC
